{
  "contractName": "CreamFactory",
  "abi": [
    {
      "inputs": [
        {
          "internalType": "contract MACIFactory",
          "name": "_maciFactory",
          "type": "address"
        }
      ],
      "stateMutability": "nonpayable",
      "type": "constructor"
    },
    {
      "anonymous": false,
      "inputs": [
        {
          "indexed": true,
          "internalType": "address",
          "name": "creamAddress",
          "type": "address"
        },
        {
          "indexed": false,
          "internalType": "string",
          "name": "ipfsHash",
          "type": "string"
        }
      ],
      "name": "CreamCreated",
      "type": "event"
    },
    {
      "anonymous": false,
      "inputs": [
        {
          "indexed": true,
          "internalType": "address",
          "name": "previousOwner",
          "type": "address"
        },
        {
          "indexed": true,
          "internalType": "address",
          "name": "newOwner",
          "type": "address"
        }
      ],
      "name": "OwnershipTransferred",
      "type": "event"
    },
    {
      "inputs": [
        {
          "internalType": "address",
          "name": "",
          "type": "address"
        }
      ],
      "name": "electionDetails",
      "outputs": [
        {
          "internalType": "string",
          "name": "",
          "type": "string"
        }
      ],
      "stateMutability": "view",
      "type": "function",
      "constant": true
    },
    {
      "inputs": [],
      "name": "maciFactory",
      "outputs": [
        {
          "internalType": "contract MACIFactory",
          "name": "",
          "type": "address"
        }
      ],
      "stateMutability": "view",
      "type": "function",
      "constant": true
    },
    {
      "inputs": [],
      "name": "owner",
      "outputs": [
        {
          "internalType": "address",
          "name": "",
          "type": "address"
        }
      ],
      "stateMutability": "view",
      "type": "function",
      "constant": true
    },
    {
      "inputs": [],
      "name": "renounceOwnership",
      "outputs": [],
      "stateMutability": "nonpayable",
      "type": "function"
    },
    {
      "inputs": [
        {
          "internalType": "address",
          "name": "newOwner",
          "type": "address"
        }
      ],
      "name": "transferOwnership",
      "outputs": [],
      "stateMutability": "nonpayable",
      "type": "function"
    },
    {
      "inputs": [
        {
          "internalType": "uint8",
          "name": "_stateTreeDepth",
          "type": "uint8"
        },
        {
          "internalType": "uint8",
          "name": "_messageTreeDepth",
          "type": "uint8"
        },
        {
          "internalType": "uint8",
          "name": "_voteOptionTreeDepth",
          "type": "uint8"
        },
        {
          "internalType": "uint8",
          "name": "_tallyBatchSize",
          "type": "uint8"
        },
        {
          "internalType": "uint8",
          "name": "_messageBatchSize",
          "type": "uint8"
        },
        {
          "internalType": "contract SnarkVerifier",
          "name": "_batchUstVerifier",
          "type": "address"
        },
        {
          "internalType": "contract SnarkVerifier",
          "name": "_qvtVerifier",
          "type": "address"
        },
        {
          "internalType": "uint256",
          "name": "_signUpDuration",
          "type": "uint256"
        },
        {
          "internalType": "uint256",
          "name": "_votingDuration",
          "type": "uint256"
        }
      ],
      "name": "setMaciParameters",
      "outputs": [],
      "stateMutability": "nonpayable",
      "type": "function"
    },
    {
      "inputs": [
        {
          "internalType": "contract IVerifier",
          "name": "_creamVerifier",
          "type": "address"
        },
        {
          "internalType": "contract VotingToken",
          "name": "_votingToken",
          "type": "address"
        },
        {
          "internalType": "contract SignUpToken",
          "name": "_signUpToken",
          "type": "address"
        },
        {
          "internalType": "uint256",
          "name": "_balance",
          "type": "uint256"
        },
        {
          "internalType": "uint32",
          "name": "_merkleTreeHeight",
          "type": "uint32"
        },
        {
          "internalType": "address[]",
          "name": "_recipients",
          "type": "address[]"
        },
        {
          "internalType": "string",
          "name": "_ipfsHash",
          "type": "string"
        },
        {
          "components": [
            {
              "internalType": "uint256",
              "name": "x",
              "type": "uint256"
            },
            {
              "internalType": "uint256",
              "name": "y",
              "type": "uint256"
            }
          ],
          "internalType": "struct MACISharedObjs.PubKey",
          "name": "_coordinatorPubKey",
          "type": "tuple"
        },
        {
          "internalType": "address",
          "name": "_coordinator",
          "type": "address"
        }
      ],
      "name": "createCream",
      "outputs": [],
      "stateMutability": "nonpayable",
      "type": "function"
    }
  ],
  "bytecode": "0x60806040523480156200001157600080fd5b5060405162007e5738038062007e5783398181016040528101906200003791906200014e565b6000620000496200012f60201b60201c565b9050806000806101000a81548173ffffffffffffffffffffffffffffffffffffffff021916908373ffffffffffffffffffffffffffffffffffffffff1602179055508073ffffffffffffffffffffffffffffffffffffffff16600073ffffffffffffffffffffffffffffffffffffffff167f8be0079c531659141344cd1fd0a4f28419497f9722a3daafe3b4186f6b6457e060405160405180910390a35080600260006101000a81548173ffffffffffffffffffffffffffffffffffffffff021916908373ffffffffffffffffffffffffffffffffffffffff16021790555050620001dc565b600033905090565b6000815190506200014881620001c2565b92915050565b6000602082840312156200016157600080fd5b6000620001718482850162000137565b91505092915050565b60006200018782620001a2565b9050919050565b60006200019b826200017a565b9050919050565b600073ffffffffffffffffffffffffffffffffffffffff82169050919050565b620001cd816200018e565b8114620001d957600080fd5b50565b617c6b80620001ec6000396000f3fe60806040523480156200001157600080fd5b5060043610620000885760003560e01c80638da5cb5b11620000635780638da5cb5b14620000db57806392ad4ff814620000fd578063b173c7de146200011d578063f2fde38b14620001535762000088565b80630d7e6cb2146200008d578063715018a614620000ad578063792e17a614620000b9575b600080fd5b620000ab6004803603810190620000a5919062001003565b62000173565b005b620000b7620002b9565b005b620000c362000411565b604051620000d29190620014eb565b60405180910390f35b620000e562000437565b604051620000f491906200144d565b60405180910390f35b6200011b600480360381019062000115919062000ecc565b62000460565b005b6200013b600480360381019062000135919062000e74565b620008fc565b6040516200014a91906200158f565b60405180910390f35b6200017160048036038101906200016b919062000e74565b620009b0565b005b6200017d62000b7a565b73ffffffffffffffffffffffffffffffffffffffff1660008054906101000a900473ffffffffffffffffffffffffffffffffffffffff1673ffffffffffffffffffffffffffffffffffffffff16146200020d576040517f08c379a0000000000000000000000000000000000000000000000000000000008152600401620002049062001619565b60405180910390fd5b600260009054906101000a900473ffffffffffffffffffffffffffffffffffffffff1673ffffffffffffffffffffffffffffffffffffffff16630d7e6cb28a8a8a8a8a8a8a8a8a6040518a63ffffffff1660e01b81526004016200027a9998979695949392919062001658565b600060405180830381600087803b1580156200029557600080fd5b505af1158015620002aa573d6000803e3d6000fd5b50505050505050505050505050565b620002c362000b7a565b73ffffffffffffffffffffffffffffffffffffffff1660008054906101000a900473ffffffffffffffffffffffffffffffffffffffff1673ffffffffffffffffffffffffffffffffffffffff161462000353576040517f08c379a00000000000000000000000000000000000000000000000000000000081526004016200034a9062001619565b60405180910390fd5b600073ffffffffffffffffffffffffffffffffffffffff1660008054906101000a900473ffffffffffffffffffffffffffffffffffffffff1673ffffffffffffffffffffffffffffffffffffffff167f8be0079c531659141344cd1fd0a4f28419497f9722a3daafe3b4186f6b6457e060405160405180910390a360008060006101000a81548173ffffffffffffffffffffffffffffffffffffffff021916908373ffffffffffffffffffffffffffffffffffffffff160217905550565b600260009054906101000a900473ffffffffffffffffffffffffffffffffffffffff1681565b60008060009054906101000a900473ffffffffffffffffffffffffffffffffffffffff16905090565b600073ffffffffffffffffffffffffffffffffffffffff168173ffffffffffffffffffffffffffffffffffffffff161415620004d3576040517f08c379a0000000000000000000000000000000000000000000000000000000008152600401620004ca90620015f7565b60405180910390fd5b3073ffffffffffffffffffffffffffffffffffffffff16600260009054906101000a900473ffffffffffffffffffffffffffffffffffffffff1673ffffffffffffffffffffffffffffffffffffffff16638da5cb5b6040518163ffffffff1660e01b815260040160206040518083038186803b1580156200055357600080fd5b505afa15801562000568573d6000803e3d6000fd5b505050506040513d601f19601f820116820180604052508101906200058e919062000ea0565b73ffffffffffffffffffffffffffffffffffffffff1614620005e7576040517f08c379a0000000000000000000000000000000000000000000000000000000008152600401620005de90620015d5565b60405180910390fd5b600087604051620005f89062000b82565b62000604919062001572565b604051809103906000f08015801562000621573d6000803e3d6000fd5b509050600087604051620006359062000b90565b6200064191906200163b565b604051809103906000f0801580156200065e573d6000803e3d6000fd5b50905060008b8b898987604051620006769062000b9e565b6200068695949392919062001487565b604051809103906000f080158015620006a3573d6000803e3d6000fd5b50905060008190506000600260009054906101000a900473ffffffffffffffffffffffffffffffffffffffff1673ffffffffffffffffffffffffffffffffffffffff16636bc02df886868a6040518463ffffffff1660e01b81526004016200070e9392919062001535565b602060405180830381600087803b1580156200072957600080fd5b505af11580156200073e573d6000803e3d6000fd5b505050506040513d601f19601f8201168201806040525081019062000764919062000fd7565b90508273ffffffffffffffffffffffffffffffffffffffff1663c8ae76bb828e6040518363ffffffff1660e01b8152600401620007a392919062001508565b600060405180830381600087803b158015620007be57600080fd5b505af1158015620007d3573d6000803e3d6000fd5b505050508273ffffffffffffffffffffffffffffffffffffffff1663f2fde38b336040518263ffffffff1660e01b81526004016200081291906200146a565b600060405180830381600087803b1580156200082d57600080fd5b505af115801562000842573d6000803e3d6000fd5b5050505087600160008473ffffffffffffffffffffffffffffffffffffffff1673ffffffffffffffffffffffffffffffffffffffff16815260200190815260200160002090805190602001906200089b92919062000bac565b508173ffffffffffffffffffffffffffffffffffffffff167f4d9c27e7439616297f147f437ed7a125c91f1bee8dffdda3621b7b62a0cccaa689604051620008e491906200158f565b60405180910390a25050505050505050505050505050565b60016020528060005260406000206000915090508054600181600116156101000203166002900480601f016020809104026020016040519081016040528092919081815260200182805460018160011615610100020316600290048015620009a85780601f106200097c57610100808354040283529160200191620009a8565b820191906000526020600020905b8154815290600101906020018083116200098a57829003601f168201915b505050505081565b620009ba62000b7a565b73ffffffffffffffffffffffffffffffffffffffff1660008054906101000a900473ffffffffffffffffffffffffffffffffffffffff1673ffffffffffffffffffffffffffffffffffffffff161462000a4a576040517f08c379a000000000000000000000000000000000000000000000000000000000815260040162000a419062001619565b60405180910390fd5b600073ffffffffffffffffffffffffffffffffffffffff168173ffffffffffffffffffffffffffffffffffffffff16141562000abd576040517f08c379a000000000000000000000000000000000000000000000000000000000815260040162000ab490620015b3565b60405180910390fd5b8073ffffffffffffffffffffffffffffffffffffffff1660008054906101000a900473ffffffffffffffffffffffffffffffffffffffff1673ffffffffffffffffffffffffffffffffffffffff167f8be0079c531659141344cd1fd0a4f28419497f9722a3daafe3b4186f6b6457e060405160405180910390a3806000806101000a81548173ffffffffffffffffffffffffffffffffffffffff021916908373ffffffffffffffffffffffffffffffffffffffff16021790555050565b600033905090565b6104ca8062001b4c83390190565b6101bc806200201683390190565b615a6480620021d283390190565b828054600181600116156101000203166002900490600052602060002090601f016020900481019282601f1062000bef57805160ff191683800117855562000c20565b8280016001018555821562000c20579182015b8281111562000c1f57825182559160200191906001019062000c02565b5b50905062000c2f919062000c33565b5090565b5b8082111562000c4e57600081600090555060010162000c34565b5090565b60008135905062000c638162001a61565b92915050565b60008151905062000c7a8162001a61565b92915050565b600082601f83011262000c9257600080fd5b813562000ca962000ca38262001725565b620016f7565b9150818183526020840193506020810190508385602084028201111562000ccf57600080fd5b60005b8381101562000d03578162000ce8888262000c52565b84526020840193506020830192505060018101905062000cd2565b5050505092915050565b60008135905062000d1e8162001a7b565b92915050565b60008151905062000d358162001a95565b92915050565b60008135905062000d4c8162001aaf565b92915050565b60008135905062000d638162001ac9565b92915050565b60008135905062000d7a8162001ae3565b92915050565b600082601f83011262000d9257600080fd5b813562000da962000da3826200174e565b620016f7565b9150808252602083016020830185838301111562000dc657600080fd5b62000dd383828462001a0b565b50505092915050565b60006040828403121562000def57600080fd5b62000dfb6040620016f7565b9050600062000e0d8482850162000e2f565b600083015250602062000e238482850162000e2f565b60208301525092915050565b60008135905062000e408162001afd565b92915050565b60008135905062000e578162001b17565b92915050565b60008135905062000e6e8162001b31565b92915050565b60006020828403121562000e8757600080fd5b600062000e978482850162000c52565b91505092915050565b60006020828403121562000eb357600080fd5b600062000ec38482850162000c69565b91505092915050565b60008060008060008060008060006101408a8c03121562000eec57600080fd5b600062000efc8c828d0162000d0d565b995050602062000f0f8c828d0162000d69565b985050604062000f228c828d0162000d3b565b975050606062000f358c828d0162000e2f565b965050608062000f488c828d0162000e46565b95505060a08a013567ffffffffffffffff81111562000f6657600080fd5b62000f748c828d0162000c80565b94505060c08a013567ffffffffffffffff81111562000f9257600080fd5b62000fa08c828d0162000d80565b93505060e062000fb38c828d0162000ddc565b92505061012062000fc78c828d0162000c52565b9150509295985092959850929598565b60006020828403121562000fea57600080fd5b600062000ffa8482850162000d24565b91505092915050565b60008060008060008060008060006101208a8c0312156200102357600080fd5b6000620010338c828d0162000e5d565b9950506020620010468c828d0162000e5d565b9850506040620010598c828d0162000e5d565b97505060606200106c8c828d0162000e5d565b96505060806200107f8c828d0162000e5d565b95505060a0620010928c828d0162000d52565b94505060c0620010a58c828d0162000d52565b93505060e0620010b88c828d0162000e2f565b925050610100620010cc8c828d0162000e2f565b9150509295985092959850929598565b6000620010ea838362001107565b60208301905092915050565b62001101816200188f565b82525050565b6200111281620017d0565b82525050565b6200112381620017d0565b82525050565b600062001136826200178b565b620011428185620017ae565b93506200114f836200177b565b8060005b83811015620011865781516200116a8882620010dc565b97506200117783620017a1565b92505060018101905062001153565b5085935050505092915050565b6200119e81620018a3565b82525050565b620011af81620018cb565b82525050565b620011c081620018f3565b82525050565b620011d1816200191b565b82525050565b620011e28162001943565b82525050565b620011f3816200196b565b82525050565b620012048162001993565b82525050565b6200121581620019bb565b82525050565b6000620012288262001796565b620012348185620017bf565b93506200124681856020860162001a1a565b620012518162001a50565b840191505092915050565b60006200126b602683620017bf565b91507f4f776e61626c653a206e6577206f776e657220697320746865207a65726f206160008301527f64647265737300000000000000000000000000000000000000000000000000006020830152604082019050919050565b6000620012d3603283620017bf565b91507f4d41434920666163746f7279206973206e6f74206f776e65642062792043726560008301527f616d466163746f727920636f6e747261637400000000000000000000000000006020830152604082019050919050565b60006200133b602283620017bf565b91507f436f6f7264696e61746f722063616e6e6f74206265207a65726f20616464726560008301527f73730000000000000000000000000000000000000000000000000000000000006020830152604082019050919050565b6000620013a3602083620017bf565b91507f4f776e61626c653a2063616c6c6572206973206e6f7420746865206f776e65726000830152602082019050919050565b604082016000820151620013ee600085018262001409565b50602082015162001403602085018262001409565b50505050565b620014148162001868565b82525050565b620014258162001868565b82525050565b620014368162001872565b82525050565b620014478162001882565b82525050565b600060208201905062001464600083018462001118565b92915050565b6000602082019050620014816000830184620010f6565b92915050565b600060a0820190506200149e600083018862001193565b620014ad60208301876200120a565b620014bc60408301866200142b565b8181036060830152620014d0818562001129565b9050620014e1608083018462001118565b9695505050505050565b6000602082019050620015026000830184620011b5565b92915050565b60006040820190506200151f6000830185620011c6565b6200152e6020830184620011e8565b9392505050565b60006080820190506200154c6000830186620011d7565b6200155b6020830185620011a4565b6200156a6040830184620013d6565b949350505050565b6000602082019050620015896000830184620011e8565b92915050565b60006020820190508181036000830152620015ab81846200121b565b905092915050565b60006020820190508181036000830152620015ce816200125c565b9050919050565b60006020820190508181036000830152620015f081620012c4565b9050919050565b6000602082019050818103600083015262001612816200132c565b9050919050565b60006020820190508181036000830152620016348162001394565b9050919050565b60006020820190506200165260008301846200141a565b92915050565b60006101208201905062001670600083018c6200143c565b6200167f602083018b6200143c565b6200168e604083018a6200143c565b6200169d60608301896200143c565b620016ac60808301886200143c565b620016bb60a0830187620011f9565b620016ca60c0830186620011f9565b620016d960e08301856200141a565b620016e96101008301846200141a565b9a9950505050505050505050565b6000604051905081810181811067ffffffffffffffff821117156200171b57600080fd5b8060405250919050565b600067ffffffffffffffff8211156200173d57600080fd5b602082029050602081019050919050565b600067ffffffffffffffff8211156200176657600080fd5b601f19601f8301169050602081019050919050565b6000819050602082019050919050565b600081519050919050565b600081519050919050565b6000602082019050919050565b600082825260208201905092915050565b600082825260208201905092915050565b6000620017dd8262001848565b9050919050565b6000620017f182620017d0565b9050919050565b60006200180582620017d0565b9050919050565b60006200181982620017d0565b9050919050565b60006200182d82620017d0565b9050919050565b60006200184182620017d0565b9050919050565b600073ffffffffffffffffffffffffffffffffffffffff82169050919050565b6000819050919050565b600063ffffffff82169050919050565b600060ff82169050919050565b60006200189c82620019e3565b9050919050565b6000620018b082620018b7565b9050919050565b6000620018c48262001848565b9050919050565b6000620018d882620018df565b9050919050565b6000620018ec8262001848565b9050919050565b6000620019008262001907565b9050919050565b6000620019148262001848565b9050919050565b600062001928826200192f565b9050919050565b60006200193c8262001848565b9050919050565b6000620019508262001957565b9050919050565b6000620019648262001848565b9050919050565b600062001978826200197f565b9050919050565b60006200198c8262001848565b9050919050565b6000620019a082620019a7565b9050919050565b6000620019b48262001848565b9050919050565b6000620019c882620019cf565b9050919050565b6000620019dc8262001848565b9050919050565b6000620019f082620019f7565b9050919050565b600062001a048262001848565b9050919050565b82818337600083830152505050565b60005b8381101562001a3a57808201518184015260208101905062001a1d565b8381111562001a4a576000848401525b50505050565b6000601f19601f8301169050919050565b62001a6c81620017d0565b811462001a7857600080fd5b50565b62001a8681620017e4565b811462001a9257600080fd5b50565b62001aa081620017f8565b811462001aac57600080fd5b50565b62001aba816200180c565b811462001ac657600080fd5b50565b62001ad48162001820565b811462001ae057600080fd5b50565b62001aee8162001834565b811462001afa57600080fd5b50565b62001b088162001868565b811462001b1457600080fd5b50565b62001b228162001872565b811462001b2e57600080fd5b50565b62001b3c8162001882565b811462001b4857600080fd5b5056fe608060405234801561001057600080fd5b506040516104ca3803806104ca8339818101604052602081101561003357600080fd5b8101908080519060200190929190505050806000806101000a81548173ffffffffffffffffffffffffffffffffffffffff021916908373ffffffffffffffffffffffffffffffffffffffff16021790555050610436806100946000396000f3fe608060405234801561001057600080fd5b50600436106100365760003560e01c806324b8fbf61461003b578063fc0c546a14610116575b600080fd5b6101146004803603604081101561005157600080fd5b81019080803573ffffffffffffffffffffffffffffffffffffffff1690602001909291908035906020019064010000000081111561008e57600080fd5b8201836020820111156100a057600080fd5b803590602001918460018302840111640100000000831117156100c257600080fd5b91908080601f016020809104026020016040519081016040528093929190818152602001838380828437600081840152601f19601f82011690508083019250505050505050919291929050505061014a565b005b61011e610363565b604051808273ffffffffffffffffffffffffffffffffffffffff16815260200191505060405180910390f35b600081806020019051602081101561016157600080fd5b8101908080519060200190929190505050905060008373ffffffffffffffffffffffffffffffffffffffff1660008054906101000a900473ffffffffffffffffffffffffffffffffffffffff1673ffffffffffffffffffffffffffffffffffffffff16636352211e846040518263ffffffff1660e01b81526004018082815260200191505060206040518083038186803b1580156101fe57600080fd5b505afa158015610212573d6000803e3d6000fd5b505050506040513d602081101561022857600080fd5b810190808051906020019092919050505073ffffffffffffffffffffffffffffffffffffffff1614905060011515811515146102af576040517f08c379a00000000000000000000000000000000000000000000000000000000081526004018080602001828103825260378152602001806103886037913960400191505060405180910390fd5b60006001600084815260200190815260200160002060009054906101000a900460ff1690506000151581151514610331576040517f08c379a00000000000000000000000000000000000000000000000000000000081526004018080602001828103825260428152602001806103bf6042913960600191505060405180910390fd5b600180600085815260200190815260200160002060006101000a81548160ff0219169083151502179055505050505050565b60008054906101000a900473ffffffffffffffffffffffffffffffffffffffff168156fe5369676e5570546f6b656e476174656b65657065723a2074686973207573657220646f6573206e6f74206f776e2074686520746f6b656e5369676e5570546f6b656e476174656b65657065723a207468697320746f6b656e2068617320616c7265616479206265656e207573656420746f207369676e207570a264697066735822122067d93085fe6b444c3aefa4a394452044cd689f03e7ed7cdfbb5259dd1901e04664736f6c634300060c0033608060405234801561001057600080fd5b506040516101bc3803806101bc8339818101604052602081101561003357600080fd5b810190808051906020019092919050505080600081905550506101618061005b6000396000f3fe608060405234801561001057600080fd5b506004361061002b5760003560e01c8063b36543a914610030575b600080fd5b6101096004803603604081101561004657600080fd5b81019080803573ffffffffffffffffffffffffffffffffffffffff1690602001909291908035906020019064010000000081111561008357600080fd5b82018360208201111561009557600080fd5b803590602001918460018302840111640100000000831117156100b757600080fd5b91908080601f016020809104026020016040519081016040528093929190818152602001838380828437600081840152601f19601f82011690508083019250505050505050919291929050505061011f565b6040518082815260200191505060405180910390f35b6000805490509291505056fea26469706673582212200dde6c8e206c6fe7cfb9c3546392063a60e096a410112f427c15766d09ea3cce64736f6c634300060c003360806040526000600360006101000a81548163ffffffff021916908363ffffffff1602179055506000600360046101000a81548163ffffffff021916908363ffffffff1602179055503480156200005557600080fd5b5060405162005a6438038062005a6483398181016040528101906200007b9190620008cd565b8260008163ffffffff1611620000c8576040517f08c379a0000000000000000000000000000000000000000000000000000000008152600401620000bf9062000bba565b60405180910390fd5b60208163ffffffff161062000114576040517f08c379a00000000000000000000000000000000000000000000000000000000081526004016200010b9062000c20565b60405180910390fd5b806000806101000a81548163ffffffff021916908363ffffffff16021790555060007f30644e72e131a029b85045b68181585d2833e84879b9709143e1f593f0000001604051602001620001689062000ba3565b6040516020818303038152906040528051906020012060001c816200018957fe5b0660001b9050600281908060018154018082558091505060019003906000526020600020016000909190919091505560018190806001815401808255809150506001900390600052602060002001600090919091909150556000600190505b60008054906101000a900463ffffffff1663ffffffff168163ffffffff16101562000281576200021f8283620004ac60201b60201c565b9150600282908060018154018082558091505060019003906000526020600020016000909190919091505560018290806001815401808255809150506001900390600052602060002001600090919091909150558080600101915050620001e8565b50620002948182620004ac60201b60201c565b6004600060648110620002a357fe5b0181905550505060016068819055506000620002c4620006f960201b60201c565b905080606960006101000a81548173ffffffffffffffffffffffffffffffffffffffff021916908373ffffffffffffffffffffffffffffffffffffffff1602179055508073ffffffffffffffffffffffffffffffffffffffff16600073ffffffffffffffffffffffffffffffffffffffff167f8be0079c531659141344cd1fd0a4f28419497f9722a3daafe3b4186f6b6457e060405160405180910390a3506000825111620003aa576040517f08c379a0000000000000000000000000000000000000000000000000000000008152600401620003a19062000c42565b60405180910390fd5b84606d60006101000a81548173ffffffffffffffffffffffffffffffffffffffff021916908373ffffffffffffffffffffffffffffffffffffffff16021790555083606e60006101000a81548173ffffffffffffffffffffffffffffffffffffffff021916908373ffffffffffffffffffffffffffffffffffffffff16021790555081606c90805190602001906200044492919062000701565b5080607160006101000a81548173ffffffffffffffffffffffffffffffffffffffff021916908373ffffffffffffffffffffffffffffffffffffffff1602179055506000607360006101000a81548160ff021916908315150217905550505050505062000e20565b60007f30644e72e131a029b85045b68181585d2833e84879b9709143e1f593f00000018360001c1062000516576040517f08c379a00000000000000000000000000000000000000000000000000000000081526004016200050d9062000bdc565b60405180910390fd5b7f30644e72e131a029b85045b68181585d2833e84879b9709143e1f593f00000018260001c106200057e576040517f08c379a0000000000000000000000000000000000000000000000000000000008152600401620005759062000bfe565b60405180910390fd5b60008360001c9050600073__MiMC__________________________________633f1a1187838360006040518463ffffffff1660e01b8152600401620005c69392919062000c64565b604080518083038186803b158015620005de57600080fd5b505af4158015620005f3573d6000803e3d6000fd5b505050506040513d601f19601f8201168201806040525081019062000619919062000968565b80925081935050507f30644e72e131a029b85045b68181585d2833e84879b9709143e1f593f0000001806200064a57fe5b8460001c8308915073__MiMC__________________________________633f1a1187838360006040518463ffffffff1660e01b8152600401620006909392919062000c64565b604080518083038186803b158015620006a857600080fd5b505af4158015620006bd573d6000803e3d6000fd5b505050506040513d601f19601f82011682018060405250810190620006e3919062000968565b80925081935050508160001b9250505092915050565b600033905090565b8280548282559060005260206000209081019282156200077d579160200282015b828111156200077c5782518260006101000a81548173ffffffffffffffffffffffffffffffffffffffff021916908373ffffffffffffffffffffffffffffffffffffffff1602179055509160200191906001019062000722565b5b5090506200078c919062000790565b5090565b5b80821115620007c957600081816101000a81549073ffffffffffffffffffffffffffffffffffffffff02191690555060010162000791565b5090565b600081519050620007de8162000d9e565b92915050565b600082601f830112620007f657600080fd5b81516200080d620008078262000ccf565b62000ca1565b915081818352602084019350602081019050838560208402820111156200083357600080fd5b60005b838110156200086757816200084c8882620007cd565b84526020840193506020830192505060018101905062000836565b5050505092915050565b600081519050620008828162000db8565b92915050565b600081519050620008998162000dd2565b92915050565b600081519050620008b08162000dec565b92915050565b600081519050620008c78162000e06565b92915050565b600080600080600060a08688031215620008e657600080fd5b6000620008f68882890162000871565b9550506020620009098882890162000888565b94505060406200091c88828901620008b6565b935050606086015167ffffffffffffffff8111156200093a57600080fd5b6200094888828901620007e4565b92505060806200095b88828901620007cd565b9150509295509295909350565b600080604083850312156200097c57600080fd5b60006200098c858286016200089f565b92505060206200099f858286016200089f565b9150509250929050565b620009b48162000d8a565b82525050565b6000620009c960168362000cf8565b91507f6d7573742062652067726561746572207468616e2030000000000000000000006000830152602082019050919050565b600062000a0b60208362000cf8565b91507f5f6c6566742073686f756c6420626520696e7369646520746865206669656c646000830152602082019050919050565b600062000a4d60218362000cf8565b91507f5f72696768742073686f756c6420626520696e7369646520746865206669656c60008301527f64000000000000000000000000000000000000000000000000000000000000006020830152604082019050919050565b600062000ab560148362000cf8565b91507f6d757374206265206c657373207468616e2033320000000000000000000000006000830152602082019050919050565b600062000af760228362000cf8565b91507f526563697069656e7473206e756d626572206265206d6f7265207468616e206f60008301527f6e650000000000000000000000000000000000000000000000000000000000006020830152604082019050919050565b600062000b5f60058362000d09565b91507f637265616d0000000000000000000000000000000000000000000000000000006000830152600582019050919050565b62000b9d8162000d70565b82525050565b600062000bb08262000b50565b9150819050919050565b6000602082019050818103600083015262000bd581620009ba565b9050919050565b6000602082019050818103600083015262000bf781620009fc565b9050919050565b6000602082019050818103600083015262000c198162000a3e565b9050919050565b6000602082019050818103600083015262000c3b8162000aa6565b9050919050565b6000602082019050818103600083015262000c5d8162000ae8565b9050919050565b600060608201905062000c7b600083018662000b92565b62000c8a602083018562000b92565b62000c996040830184620009a9565b949350505050565b6000604051905081810181811067ffffffffffffffff8211171562000cc557600080fd5b8060405250919050565b600067ffffffffffffffff82111562000ce757600080fd5b602082029050602081019050919050565b600082825260208201905092915050565b600081905092915050565b600062000d218262000d50565b9050919050565b600062000d358262000d14565b9050919050565b600062000d498262000d14565b9050919050565b600073ffffffffffffffffffffffffffffffffffffffff82169050919050565b6000819050919050565b600063ffffffff82169050919050565b600062000d978262000d70565b9050919050565b62000da98162000d14565b811462000db557600080fd5b50565b62000dc38162000d28565b811462000dcf57600080fd5b50565b62000ddd8162000d3c565b811462000de957600080fd5b50565b62000df78162000d70565b811462000e0357600080fd5b50565b62000e118162000d7a565b811462000e1d57600080fd5b50565b614c348062000e306000396000f3fe60806040526004361061021a5760003560e01c80638da5cb5b11610123578063c8ae76bb116100ab578063e82955881161006f578063e8295588146107bd578063ec732959146107fa578063f178e47c14610825578063f2fde38b14610862578063fc7e9c6f1461088b5761021a565b8063c8ae76bb146106d8578063cd87a3b414610701578063d1bc76a11461072c578063d754d32614610769578063d78d610b146107925761021a565b8063b0340123116100f2578063b0340123146105ec578063b214faa514610617578063b36543a914610633578063ba70f75714610670578063c2b40ae41461069b5761021a565b80638da5cb5b1461054257806390eeb02b1461056d57806397fc007c14610598578063acbf9b3f146105c15761021a565b806338bf282e116101a65780636d9833e3116101755780636d9833e31461045d578063715018a61461049a57806382c2e0fb146104b1578063839df945146104dc5780638766c489146105195761021a565b806338bf282e146103b3578063414a37ba146103f05780634812915b1461041b5780634ecf518b146104325761021a565b806319d40b08116101ed57806319d40b08146102ed57806324b8fbf6146103185780632b7ac3f3146103415780632e1a7d4d1461036c57806334a0922c146103885761021a565b80630a0090971461021f578063150b7a021461024a578063153a01601461028757806317cc915c146102b0575b600080fd5b34801561022b57600080fd5b506102346108b6565b6040516102419190614117565b60405180910390f35b34801561025657600080fd5b50610271600480360381019061026c91906131e5565b6108dc565b60405161027e91906142e3565b60405180910390f35b34801561029357600080fd5b506102ae60048036038101906102a99190613488565b6108f0565b005b3480156102bc57600080fd5b506102d760048036038101906102d291906133a2565b610e98565b6040516102e491906142ad565b60405180910390f35b3480156102f957600080fd5b50610302610eb8565b60405161030f91906142ad565b60405180910390f35b34801561032457600080fd5b5061033f600480360381019061033a9190613260565b610ecb565b005b34801561034d57600080fd5b50610356610ecf565b60405161036391906142fe565b60405180910390f35b610386600480360381019061038191906134ee565b610ef5565b005b34801561039457600080fd5b5061039d61116d565b6040516103aa9190614319565b60405180910390f35b3480156103bf57600080fd5b506103da60048036038101906103d591906133cb565b611193565b6040516103e791906142c8565b60405180910390f35b3480156103fc57600080fd5b506104056113cd565b6040516104129190614700565b60405180910390f35b34801561042757600080fd5b506104306113f1565b005b34801561043e57600080fd5b50610447611618565b6040516104549190614752565b60405180910390f35b34801561046957600080fd5b50610484600480360381019061047f91906133a2565b61162c565b60405161049191906142ad565b60405180910390f35b3480156104a657600080fd5b506104af6116ce565b005b3480156104bd57600080fd5b506104c6611826565b6040516104d3919061438e565b60405180910390f35b3480156104e857600080fd5b5061050360048036038101906104fe91906133a2565b6118c4565b60405161051091906142ad565b60405180910390f35b34801561052557600080fd5b50610540600480360381019061053b91906132b4565b6118e4565b005b34801561054e57600080fd5b50610557611a59565b6040516105649190614117565b60405180910390f35b34801561057957600080fd5b50610582611a83565b60405161058f9190614752565b60405180910390f35b3480156105a457600080fd5b506105bf60048036038101906105ba91906131bc565b611a99565b005b3480156105cd57600080fd5b506105d6611b74565b6040516105e39190614334565b60405180910390f35b3480156105f857600080fd5b50610601611b9a565b60405161060e919061434f565b60405180910390f35b610631600480360381019061062c91906133a2565b611bc0565b005b34801561063f57600080fd5b5061065a60048036038101906106559190613260565b612037565b6040516106679190614700565b60405180910390f35b34801561067c57600080fd5b5061068561203f565b60405161069291906142c8565b60405180910390f35b3480156106a757600080fd5b506106c260048036038101906106bd91906134ee565b61206d565b6040516106cf91906142c8565b60405180910390f35b3480156106e457600080fd5b506106ff60048036038101906106fa9190613407565b612085565b005b34801561070d57600080fd5b50610716612383565b6040516107239190614752565b60405180910390f35b34801561073857600080fd5b50610753600480360381019061074e91906134ee565b612388565b6040516107609190614117565b60405180910390f35b34801561077557600080fd5b50610790600480360381019061078b9190613443565b6123c4565b005b34801561079e57600080fd5b506107a761257c565b6040516107b49190614228565b60405180910390f35b3480156107c957600080fd5b506107e460048036038101906107df91906134ee565b61260a565b6040516107f191906142c8565b60405180910390f35b34801561080657600080fd5b5061080f61262b565b60405161081c9190614700565b60405180910390f35b34801561083157600080fd5b5061084c600480360381019061084791906134ee565b61267f565b60405161085991906142c8565b60405180910390f35b34801561086e57600080fd5b50610889600480360381019061088491906131bc565b6126a0565b005b34801561089757600080fd5b506108a0612867565b6040516108ad9190614752565b60405180910390f35b607160009054906101000a900473ffffffffffffffffffffffffffffffffffffffff1681565b600063150b7a0260e01b9050949350505050565b60026068541415610936576040517f08c379a000000000000000000000000000000000000000000000000000000000815260040161092d90614610565b60405180910390fd5b6002606881905550606a600082815260200190815260200160002060009054906101000a900460ff161561099f576040517f08c379a000000000000000000000000000000000000000000000000000000000815260040161099690614510565b60405180910390fd5b6109a88261162c565b6109e7576040517f08c379a00000000000000000000000000000000000000000000000000000000081526004016109de90614430565b60405180910390fd5b6109ef612d93565b6109f7612db5565b6109ff612d93565b606f60009054906101000a900473ffffffffffffffffffffffffffffffffffffffff1673ffffffffffffffffffffffffffffffffffffffff1663f5ab0dd6876040518263ffffffff1660e01b8152600401610a5a9190614291565b6101006040518083038186803b158015610a7357600080fd5b505afa158015610a87573d6000803e3d6000fd5b505050506040513d601f19601f82011682018060405250810190610aab9190613329565b925092509250606d60009054906101000a900473ffffffffffffffffffffffffffffffffffffffff1673ffffffffffffffffffffffffffffffffffffffff1663f5c9d69e84848460405180604001604052808b60001c81526020018a60001c8152506040518563ffffffff1660e01b8152600401610b2c949392919061424a565b602060405180830381600087803b158015610b4657600080fd5b505af1158015610b5a573d6000803e3d6000fd5b505050506040513d601f19601f82011682018060405250810190610b7e9190613379565b610bbd576040517f08c379a0000000000000000000000000000000000000000000000000000000008152600401610bb490614670565b60405180910390fd5b6001606a600086815260200190815260200160002060006101000a81548160ff0219169083151502179055506000607060009054906101000a900473ffffffffffffffffffffffffffffffffffffffff1673ffffffffffffffffffffffffffffffffffffffff16634f3e1efc6040518163ffffffff1660e01b815260040160206040518083038186803b158015610c5357600080fd5b505afa158015610c67573d6000803e3d6000fd5b505050506040513d601f19601f82011682018060405250810190610c8b9190613517565b9050606081604051602001610ca09190614700565b6040516020818303038152906040529050606033604051602001610cc4919061414d565b6040516020818303038152906040529050607060009054906101000a900473ffffffffffffffffffffffffffffffffffffffff1673ffffffffffffffffffffffffffffffffffffffff1663e26835ce306040518263ffffffff1660e01b8152600401610d309190614117565b600060405180830381600087803b158015610d4a57600080fd5b505af1158015610d5e573d6000803e3d6000fd5b50505050606f60009054906101000a900473ffffffffffffffffffffffffffffffffffffffff1673ffffffffffffffffffffffffffffffffffffffff16633364120a8b84846040518463ffffffff1660e01b8152600401610dc1939291906146bb565b600060405180830381600087803b158015610ddb57600080fd5b505af1158015610def573d6000803e3d6000fd5b50505050607060009054906101000a900473ffffffffffffffffffffffffffffffffffffffff1673ffffffffffffffffffffffffffffffffffffffff166342842e0e3033866040518463ffffffff1660e01b8152600401610e52939291906141c8565b600060405180830381600087803b158015610e6c57600080fd5b505af1158015610e80573d6000803e3d6000fd5b50505050505050505050600160688190555050505050565b606a6020528060005260406000206000915054906101000a900460ff1681565b607360009054906101000a900460ff1681565b5050565b606d60009054906101000a900473ffffffffffffffffffffffffffffffffffffffff1681565b60026068541415610f3b576040517f08c379a0000000000000000000000000000000000000000000000000000000008152600401610f3290614610565b60405180910390fd5b6002606881905550600073ffffffffffffffffffffffffffffffffffffffff16606f60009054906101000a900473ffffffffffffffffffffffffffffffffffffffff1673ffffffffffffffffffffffffffffffffffffffff161415610fd5576040517f08c379a0000000000000000000000000000000000000000000000000000000008152600401610fcc90614630565b60405180910390fd5b607360009054906101000a900460ff16611024576040517f08c379a000000000000000000000000000000000000000000000000000000000815260040161101b90614490565b60405180910390fd5b607160009054906101000a900473ffffffffffffffffffffffffffffffffffffffff1673ffffffffffffffffffffffffffffffffffffffff163373ffffffffffffffffffffffffffffffffffffffff16146110b4576040517f08c379a00000000000000000000000000000000000000000000000000000000081526004016110ab906145d0565b60405180910390fd5b6110f4606c82815481106110c457fe5b9060005260206000200160009054906101000a900473ffffffffffffffffffffffffffffffffffffffff1661287d565b7fe19ed71156e31b3c9e18ac7ad8d1b79f0a0feb3be18d23dae612e52040aada4b606c828154811061112257fe5b9060005260206000200160009054906101000a900473ffffffffffffffffffffffffffffffffffffffff1660405161115a9190614117565b60405180910390a1600160688190555050565b606f60009054906101000a900473ffffffffffffffffffffffffffffffffffffffff1681565b60007f30644e72e131a029b85045b68181585d2833e84879b9709143e1f593f00000018360001c106111fa576040517f08c379a00000000000000000000000000000000000000000000000000000000081526004016111f190614470565b60405180910390fd5b7f30644e72e131a029b85045b68181585d2833e84879b9709143e1f593f00000018260001c1061125f576040517f08c379a0000000000000000000000000000000000000000000000000000000008152600401611256906144f0565b60405180910390fd5b60008360001c9050600073__MiMC__________________________________633f1a1187838360006040518463ffffffff1660e01b81526004016112a59392919061471b565b604080518083038186803b1580156112bc57600080fd5b505af41580156112d0573d6000803e3d6000fd5b505050506040513d601f19601f820116820180604052508101906112f49190613540565b80925081935050507f30644e72e131a029b85045b68181585d2833e84879b9709143e1f593f00000018061132457fe5b8460001c8308915073__MiMC__________________________________633f1a1187838360006040518463ffffffff1660e01b81526004016113689392919061471b565b604080518083038186803b15801561137f57600080fd5b505af4158015611393573d6000803e3d6000fd5b505050506040513d601f19601f820116820180604052508101906113b79190613540565b80925081935050508160001b9250505092915050565b7f30644e72e131a029b85045b68181585d2833e84879b9709143e1f593f000000181565b6113f96129c4565b73ffffffffffffffffffffffffffffffffffffffff16606960009054906101000a900473ffffffffffffffffffffffffffffffffffffffff1673ffffffffffffffffffffffffffffffffffffffff1614611488576040517f08c379a000000000000000000000000000000000000000000000000000000000815260040161147f90614550565b60405180910390fd5b600073ffffffffffffffffffffffffffffffffffffffff16606f60009054906101000a900473ffffffffffffffffffffffffffffffffffffffff1673ffffffffffffffffffffffffffffffffffffffff16141561151a576040517f08c379a000000000000000000000000000000000000000000000000000000000815260040161151190614630565b60405180910390fd5b607360009054906101000a900460ff161561156a576040517f08c379a0000000000000000000000000000000000000000000000000000000008152600401611561906143d0565b60405180910390fd5b6000607280546001816001161561010002031660029004905014156115c4576040517f08c379a00000000000000000000000000000000000000000000000000000000081526004016115bb906144b0565b60405180910390fd5b6001607360006101000a81548160ff0219169083151502179055507f8ed92fb430e18e0bc33f2cac2e25c32d5806397bc5692f98896867d8bde13ff64260405161160e9190614700565b60405180910390a1565b60008054906101000a900463ffffffff1681565b60008060001b82141561164257600090506116c9565b6000600360009054906101000a900463ffffffff1690505b60048163ffffffff166064811061166d57fe5b01548314156116805760019150506116c9565b60008163ffffffff16141561169457606490505b808060019003915050600360009054906101000a900463ffffffff1663ffffffff168163ffffffff16141561165a5760009150505b919050565b6116d66129c4565b73ffffffffffffffffffffffffffffffffffffffff16606960009054906101000a900473ffffffffffffffffffffffffffffffffffffffff1673ffffffffffffffffffffffffffffffffffffffff1614611765576040517f08c379a000000000000000000000000000000000000000000000000000000000815260040161175c90614550565b60405180910390fd5b600073ffffffffffffffffffffffffffffffffffffffff16606960009054906101000a900473ffffffffffffffffffffffffffffffffffffffff1673ffffffffffffffffffffffffffffffffffffffff167f8be0079c531659141344cd1fd0a4f28419497f9722a3daafe3b4186f6b6457e060405160405180910390a36000606960006101000a81548173ffffffffffffffffffffffffffffffffffffffff021916908373ffffffffffffffffffffffffffffffffffffffff160217905550565b60728054600181600116156101000203166002900480601f0160208091040260200160405190810160405280929190818152602001828054600181600116156101000203166002900480156118bc5780601f10611891576101008083540402835291602001916118bc565b820191906000526020600020905b81548152906001019060200180831161189f57829003601f168201915b505050505081565b606b6020528060005260406000206000915054906101000a900460ff1681565b600073ffffffffffffffffffffffffffffffffffffffff16606f60009054906101000a900473ffffffffffffffffffffffffffffffffffffffff1673ffffffffffffffffffffffffffffffffffffffff161415611976576040517f08c379a000000000000000000000000000000000000000000000000000000000815260040161196d90614630565b60405180910390fd5b600084849050905060005b818160ff161015611a5157606f60009054906101000a900473ffffffffffffffffffffffffffffffffffffffff1673ffffffffffffffffffffffffffffffffffffffff1663394b78a287878460ff168181106119d957fe5b9050610160020186868560ff168181106119ef57fe5b9050604002016040518363ffffffff1660e01b8152600401611a12929190614690565b600060405180830381600087803b158015611a2c57600080fd5b505af1158015611a40573d6000803e3d6000fd5b505050508080600101915050611981565b505050505050565b6000606960009054906101000a900473ffffffffffffffffffffffffffffffffffffffff16905090565b600360009054906101000a900463ffffffff1681565b611aa16129c4565b73ffffffffffffffffffffffffffffffffffffffff16606960009054906101000a900473ffffffffffffffffffffffffffffffffffffffff1673ffffffffffffffffffffffffffffffffffffffff1614611b30576040517f08c379a0000000000000000000000000000000000000000000000000000000008152600401611b2790614550565b60405180910390fd5b80606d60006101000a81548173ffffffffffffffffffffffffffffffffffffffff021916908373ffffffffffffffffffffffffffffffffffffffff16021790555050565b607060009054906101000a900473ffffffffffffffffffffffffffffffffffffffff1681565b606e60009054906101000a900473ffffffffffffffffffffffffffffffffffffffff1681565b60026068541415611c06576040517f08c379a0000000000000000000000000000000000000000000000000000000008152600401611bfd90614610565b60405180910390fd5b6002606881905550600073ffffffffffffffffffffffffffffffffffffffff16606f60009054906101000a900473ffffffffffffffffffffffffffffffffffffffff1673ffffffffffffffffffffffffffffffffffffffff161415611ca0576040517f08c379a0000000000000000000000000000000000000000000000000000000008152600401611c9790614630565b60405180910390fd5b606f60009054906101000a900473ffffffffffffffffffffffffffffffffffffffff1673ffffffffffffffffffffffffffffffffffffffff1663d9509b156040518163ffffffff1660e01b815260040160206040518083038186803b158015611d0857600080fd5b505afa158015611d1c573d6000803e3d6000fd5b505050506040513d601f19601f82011682018060405250810190611d409190613517565b4210611d81576040517f08c379a0000000000000000000000000000000000000000000000000000000008152600401611d7890614530565b60405180910390fd5b606f60009054906101000a900473ffffffffffffffffffffffffffffffffffffffff1673ffffffffffffffffffffffffffffffffffffffff166374ec2ae06040518163ffffffff1660e01b815260040160206040518083038186803b158015611de957600080fd5b505afa158015611dfd573d6000803e3d6000fd5b505050506040513d601f19601f82011682018060405250810190611e219190613517565b4210611e62576040517f08c379a0000000000000000000000000000000000000000000000000000000008152600401611e5990614590565b60405180910390fd5b606b600082815260200190815260200160002060009054906101000a900460ff1615611ec3576040517f08c379a0000000000000000000000000000000000000000000000000000000008152600401611eba90614570565b60405180910390fd5b6001606e60009054906101000a900473ffffffffffffffffffffffffffffffffffffffff1673ffffffffffffffffffffffffffffffffffffffff166370a08231336040518263ffffffff1660e01b8152600401611f209190614132565b60206040518083038186803b158015611f3857600080fd5b505afa158015611f4c573d6000803e3d6000fd5b505050506040513d601f19601f82011682018060405250810190611f709190613517565b14611fb0576040517f08c379a0000000000000000000000000000000000000000000000000000000008152600401611fa7906143f0565b60405180910390fd5b6000611fbb826129cc565b90506001606b600084815260200190815260200160002060006101000a81548160ff021916908315150217905550611ff1612c0a565b817fa945e51eec50ab98c161376f0db4cf2aeba3ec92755fe2fcd388bdbbb80ff196824260405161202392919061476d565b60405180910390a250600160688190555050565b600092915050565b60006004600360009054906101000a900463ffffffff1663ffffffff166064811061206657fe5b0154905090565b6004816064811061207a57fe5b016000915090505481565b61208d6129c4565b73ffffffffffffffffffffffffffffffffffffffff16606960009054906101000a900473ffffffffffffffffffffffffffffffffffffffff1673ffffffffffffffffffffffffffffffffffffffff161461211c576040517f08c379a000000000000000000000000000000000000000000000000000000000815260040161211390614550565b60405180910390fd5b600073ffffffffffffffffffffffffffffffffffffffff16606f60009054906101000a900473ffffffffffffffffffffffffffffffffffffffff1673ffffffffffffffffffffffffffffffffffffffff16146121ad576040517f08c379a00000000000000000000000000000000000000000000000000000000081526004016121a490614650565b60405180910390fd5b600073ffffffffffffffffffffffffffffffffffffffff16607060009054906101000a900473ffffffffffffffffffffffffffffffffffffffff1673ffffffffffffffffffffffffffffffffffffffff161461223e576040517f08c379a0000000000000000000000000000000000000000000000000000000008152600401612235906145b0565b60405180910390fd5b428273ffffffffffffffffffffffffffffffffffffffff166374ec2ae06040518163ffffffff1660e01b815260040160206040518083038186803b15801561228557600080fd5b505afa158015612299573d6000803e3d6000fd5b505050506040513d601f19601f820116820180604052508101906122bd9190613517565b116122fd576040517f08c379a00000000000000000000000000000000000000000000000000000000081526004016122f4906143b0565b60405180910390fd5b81606f60006101000a81548173ffffffffffffffffffffffffffffffffffffffff021916908373ffffffffffffffffffffffffffffffffffffffff16021790555080607060006101000a81548173ffffffffffffffffffffffffffffffffffffffff021916908373ffffffffffffffffffffffffffffffffffffffff1602179055505050565b606481565b606c818154811061239557fe5b906000526020600020016000915054906101000a900473ffffffffffffffffffffffffffffffffffffffff1681565b600073ffffffffffffffffffffffffffffffffffffffff16606f60009054906101000a900473ffffffffffffffffffffffffffffffffffffffff1673ffffffffffffffffffffffffffffffffffffffff161415612456576040517f08c379a000000000000000000000000000000000000000000000000000000000815260040161244d90614630565b60405180910390fd5b607160009054906101000a900473ffffffffffffffffffffffffffffffffffffffff1673ffffffffffffffffffffffffffffffffffffffff163373ffffffffffffffffffffffffffffffffffffffff16146124e6576040517f08c379a00000000000000000000000000000000000000000000000000000000081526004016124dd906145d0565b60405180910390fd5b600082829050141561252d576040517f08c379a000000000000000000000000000000000000000000000000000000000815260040161252490614450565b60405180910390fd5b81816072919061253e929190612de2565b507f25889b4220280b76437c086efe0bbecb5315f90890d209d027b11cceb7bdd3fb828260405161257092919061436a565b60405180910390a15050565b6060606c80548060200260200160405190810160405280929190818152602001828054801561260057602002820191906000526020600020905b8160009054906101000a900473ffffffffffffffffffffffffffffffffffffffff1673ffffffffffffffffffffffffffffffffffffffff16815260200190600101908083116125b6575b5050505050905090565b6002818154811061261757fe5b906000526020600020016000915090505481565b7f30644e72e131a029b85045b68181585d2833e84879b9709143e1f593f000000160405160200161265b90614102565b6040516020818303038152906040528051906020012060001c8161267b57fe5b0681565b6001818154811061268c57fe5b906000526020600020016000915090505481565b6126a86129c4565b73ffffffffffffffffffffffffffffffffffffffff16606960009054906101000a900473ffffffffffffffffffffffffffffffffffffffff1673ffffffffffffffffffffffffffffffffffffffff1614612737576040517f08c379a000000000000000000000000000000000000000000000000000000000815260040161272e90614550565b60405180910390fd5b600073ffffffffffffffffffffffffffffffffffffffff168173ffffffffffffffffffffffffffffffffffffffff1614156127a7576040517f08c379a000000000000000000000000000000000000000000000000000000000815260040161279e90614410565b60405180910390fd5b8073ffffffffffffffffffffffffffffffffffffffff16606960009054906101000a900473ffffffffffffffffffffffffffffffffffffffff1673ffffffffffffffffffffffffffffffffffffffff167f8be0079c531659141344cd1fd0a4f28419497f9722a3daafe3b4186f6b6457e060405160405180910390a380606960006101000a81548173ffffffffffffffffffffffffffffffffffffffff021916908373ffffffffffffffffffffffffffffffffffffffff16021790555050565b600360049054906101000a900463ffffffff1681565b6000606e60009054906101000a900473ffffffffffffffffffffffffffffffffffffffff1673ffffffffffffffffffffffffffffffffffffffff16632f745c593060006040518363ffffffff1660e01b81526004016128dd9291906141ff565b60206040518083038186803b1580156128f557600080fd5b505afa158015612909573d6000803e3d6000fd5b505050506040513d601f19601f8201168201806040525081019061292d9190613517565b9050606e60009054906101000a900473ffffffffffffffffffffffffffffffffffffffff1673ffffffffffffffffffffffffffffffffffffffff166342842e0e3084846040518463ffffffff1660e01b815260040161298e939291906141c8565b600060405180830381600087803b1580156129a857600080fd5b505af11580156129bc573d6000803e3d6000fd5b505050505050565b600033905090565b600080600360049054906101000a900463ffffffff16905060008054906101000a900463ffffffff1663ffffffff16600263ffffffff160a63ffffffff168163ffffffff161415612a52576040517f08c379a0000000000000000000000000000000000000000000000000000000008152600401612a49906145f0565b60405180910390fd5b6001600360048282829054906101000a900463ffffffff160192506101000a81548163ffffffff021916908363ffffffff160217905550600083905060008060005b60008054906101000a900463ffffffff1663ffffffff168163ffffffff161015612b7157600060028663ffffffff1681612aca57fe5b0663ffffffff161415612b215783925060028163ffffffff1681548110612aed57fe5b906000526020600020015491508360018263ffffffff1681548110612b0e57fe5b9060005260206000200181905550612b45565b60018163ffffffff1681548110612b3457fe5b906000526020600020015492508391505b612b4f8383611193565b935060028563ffffffff1681612b6157fe5b0494508080600101915050612a94565b50606463ffffffff166001600360009054906101000a900463ffffffff160163ffffffff1681612b9d57fe5b06600360006101000a81548163ffffffff021916908363ffffffff160217905550826004600360009054906101000a900463ffffffff1663ffffffff1660648110612be457fe5b01819055506001600360049054906101000a900463ffffffff1603945050505050919050565b60003414612c4d576040517f08c379a0000000000000000000000000000000000000000000000000000000008152600401612c44906144d0565b60405180910390fd5b6000606e60009054906101000a900473ffffffffffffffffffffffffffffffffffffffff1673ffffffffffffffffffffffffffffffffffffffff16632f745c593360006040518363ffffffff1660e01b8152600401612cad92919061419f565b60206040518083038186803b158015612cc557600080fd5b505afa158015612cd9573d6000803e3d6000fd5b505050506040513d601f19601f82011682018060405250810190612cfd9190613517565b9050606e60009054906101000a900473ffffffffffffffffffffffffffffffffffffffff1673ffffffffffffffffffffffffffffffffffffffff166342842e0e3330846040518463ffffffff1660e01b8152600401612d5e93929190614168565b600060405180830381600087803b158015612d7857600080fd5b505af1158015612d8c573d6000803e3d6000fd5b5050505050565b6040518060400160405280600290602082028036833780820191505090505090565b60405180604001604052806002905b612dcc612d93565b815260200190600190039081612dc45790505090565b828054600181600116156101000203166002900490600052602060002090601f016020900481019282601f10612e2357803560ff1916838001178555612e51565b82800160010185558215612e51579182015b82811115612e50578235825591602001919060010190612e35565b5b509050612e5e9190612e62565b5090565b5b80821115612e7b576000816000905550600101612e63565b5090565b600081359050612e8e81614b74565b92915050565b600082601f830112612ea557600080fd5b6002612eb8612eb3826147c3565b614796565b91508183856040840282011115612ece57600080fd5b60005b83811015612efe5781612ee48882612f9d565b845260208401935060408301925050600181019050612ed1565b5050505092915050565b60008083601f840112612f1a57600080fd5b8235905067ffffffffffffffff811115612f3357600080fd5b60208301915083610160820283011115612f4c57600080fd5b9250929050565b60008083601f840112612f6557600080fd5b8235905067ffffffffffffffff811115612f7e57600080fd5b602083019150836040820283011115612f9657600080fd5b9250929050565b600082601f830112612fae57600080fd5b6002612fc1612fbc826147e5565b614796565b91508183856020840282011115612fd757600080fd5b60005b838110156130075781612fed88826131a7565b845260208401935060208301925050600181019050612fda565b5050505092915050565b600082601f83011261302257600080fd5b600861303561303082614807565b614796565b9150818385602084028201111561304b57600080fd5b60005b8381101561307b57816130618882613192565b84526020840193506020830192505060018101905061304e565b5050505092915050565b60008151905061309481614b8b565b92915050565b6000813590506130a981614ba2565b92915050565b600082601f8301126130c057600080fd5b81356130d36130ce82614829565b614796565b915080825260208301602083018583830111156130ef57600080fd5b6130fa838284614b21565b50505092915050565b60008135905061311281614bb9565b92915050565b60008135905061312781614bd0565b92915050565b60008083601f84011261313f57600080fd5b8235905067ffffffffffffffff81111561315857600080fd5b60208301915083600182028301111561317057600080fd5b9250929050565b60006040828403121561318957600080fd5b81905092915050565b6000813590506131a181614be7565b92915050565b6000815190506131b681614be7565b92915050565b6000602082840312156131ce57600080fd5b60006131dc84828501612e7f565b91505092915050565b600080600080608085870312156131fb57600080fd5b600061320987828801612e7f565b945050602061321a87828801612e7f565b935050604061322b87828801613192565b925050606085013567ffffffffffffffff81111561324857600080fd5b613254878288016130af565b91505092959194509250565b6000806040838503121561327357600080fd5b600061328185828601612e7f565b925050602083013567ffffffffffffffff81111561329e57600080fd5b6132aa858286016130af565b9150509250929050565b600080600080604085870312156132ca57600080fd5b600085013567ffffffffffffffff8111156132e457600080fd5b6132f087828801612f08565b9450945050602085013567ffffffffffffffff81111561330f57600080fd5b61331b87828801612f53565b925092505092959194509250565b6000806000610100848603121561333f57600080fd5b600061334d86828701612f9d565b935050604061335e86828701612e94565b92505060c061336f86828701612f9d565b9150509250925092565b60006020828403121561338b57600080fd5b600061339984828501613085565b91505092915050565b6000602082840312156133b457600080fd5b60006133c28482850161309a565b91505092915050565b600080604083850312156133de57600080fd5b60006133ec8582860161309a565b92505060206133fd8582860161309a565b9150509250929050565b6000806040838503121561341a57600080fd5b600061342885828601613103565b925050602061343985828601613118565b9150509250929050565b6000806020838503121561345657600080fd5b600083013567ffffffffffffffff81111561347057600080fd5b61347c8582860161312d565b92509250509250929050565b600080600080610180858703121561349f57600080fd5b60006134ad87828801613177565b94505060406134be87828801613011565b9350506101406134d08782880161309a565b9250506101606134e28782880161309a565b91505092959194509250565b60006020828403121561350057600080fd5b600061350e84828501613192565b91505092915050565b60006020828403121561352957600080fd5b6000613537848285016131a7565b91505092915050565b6000806040838503121561355357600080fd5b6000613561858286016131a7565b9250506020613572858286016131a7565b9150509250929050565b600061358883836135e2565b60208301905092915050565b60006135a083836136c6565b60408301905092915050565b60006135b883836140c6565b60208301905092915050565b6135cd81614a49565b82525050565b6135dc81614997565b82525050565b6135eb81614985565b82525050565b6135fa81614985565b82525050565b600061360b82614883565b61361581856148f9565b935061362083614855565b8060005b83811015613651578151613638888261357c565b9750613643836148c5565b925050600181019050613624565b5085935050505092915050565b6136678161488e565b613671818461490a565b925061367c82614865565b8060005b838110156136ad5781516136948782613594565b965061369f836148d2565b925050600181019050613680565b505050505050565b6136c26101408383614b21565b5050565b6136cf81614899565b6136d98184614915565b92506136e48261486f565b8060005b838110156137155781516136fc87826135ac565b9650613707836148df565b9250506001810190506136e8565b505050505050565b61372681614899565b6137308184614920565b925061373b8261486f565b8060005b8381101561376c57815161375387826135ac565b965061375e836148df565b92505060018101905061373f565b505050505050565b61377d816148a4565b613787818461492b565b925061379282614879565b8060005b838110156137c35781516137aa87826135ac565b96506137b5836148ec565b925050600181019050613796565b505050505050565b6137d4816149a9565b82525050565b6137e3816149b5565b82525050565b6137f2816149bf565b82525050565b6000613803826148af565b61380d8185614936565b935061381d818560208601614b30565b61382681614b63565b840191505092915050565b61383a81614a5b565b82525050565b61384981614a7f565b82525050565b61385881614aa3565b82525050565b61386781614ac7565b82525050565b61387681614aeb565b82525050565b61388581614aeb565b82525050565b60006138978385614947565b93506138a4838584614b21565b6138ad83614b63565b840190509392505050565b60006138c3826148ba565b6138cd8185614947565b93506138dd818560208601614b30565b6138e681614b63565b840191505092915050565b60006138fe602583614947565b91507f5369676e757020646561646c696e65206d75737420626520696e20746865206660008301527f75747572650000000000000000000000000000000000000000000000000000006020830152604082019050919050565b6000613964601083614947565b91507f416c726561647920617070726f766564000000000000000000000000000000006000830152602082019050919050565b60006139a4602f83614947565b91507f53656e64657220646f6573206e6f74206f776e20617070726f7072656174652060008301527f616d6f756e74206f6620746f6b656e00000000000000000000000000000000006020830152604082019050919050565b6000613a0a602683614947565b91507f4f776e61626c653a206e6577206f776e657220697320746865207a65726f206160008301527f64647265737300000000000000000000000000000000000000000000000000006020830152604082019050919050565b6000613a70601c83614947565b91507f43616e6e6f742066696e6420796f7572206d65726b6c6520726f6f74000000006000830152602082019050919050565b6000613ab0602183614947565b91507f54616c6c7920686173682063616e6e6f7420626520656d70747920737472696e60008301527f67000000000000000000000000000000000000000000000000000000000000006020830152604082019050919050565b6000613b16602083614947565b91507f5f6c6566742073686f756c6420626520696e7369646520746865206669656c646000830152602082019050919050565b6000613b56602083614947565b91507f54616c6c7920726573756c74206973206e6f7420617070726f766564207965746000830152602082019050919050565b6000613b96602183614947565b91507f54616c6c79206861736820686173206e6f74206265656e207075626c6973686560008301527f64000000000000000000000000000000000000000000000000000000000000006020830152604082019050919050565b6000613bfc602883614947565b91507f4554482076616c756520697320737570706f656420746f206265203020666f7260008301527f206465706f7369740000000000000000000000000000000000000000000000006020830152604082019050919050565b6000613c62602183614947565b91507f5f72696768742073686f756c6420626520696e7369646520746865206669656c60008301527f64000000000000000000000000000000000000000000000000000000000000006020830152604082019050919050565b6000613cc8602483614947565b91507f546865206e756c6c696669657220486173204265656e20416c7265616479205360008301527f70656e74000000000000000000000000000000000000000000000000000000006020830152604082019050919050565b6000613d2e601c83614947565b91507f74686520766f74696e6720706572696f642068617320706173736564000000006000830152602082019050919050565b6000613d6e602083614947565b91507f4f776e61626c653a2063616c6c6572206973206e6f7420746865206f776e65726000830152602082019050919050565b6000613dae601183614947565b91507f416c7265616479207375626d69747465640000000000000000000000000000006000830152602082019050919050565b6000613dee601d83614947565b91507f746865207369676e2d757020706572696f6420686173207061737365640000006000830152602082019050919050565b6000613e2e602683614947565b91507f416c7265616479206c696e6b656420746f205369676e5570546f6b656e20696e60008301527f7374616e636500000000000000000000000000000000000000000000000000006020830152604082019050919050565b6000613e94601d83614947565b91507f53656e646572206973206e6f742074686520636f6f7264696e61746f720000006000830152602082019050919050565b6000613ed4601383614947565b91507f4d65726b6c6520747265652069732066756c6c000000000000000000000000006000830152602082019050919050565b6000613f14601f83614947565b91507f5265656e7472616e637947756172643a207265656e7472616e742063616c6c006000830152602082019050919050565b6000613f54601e83614947565b91507f4d41434920636f6e74726163742068617665206e6f74207365742079657400006000830152602082019050919050565b6000613f94600583614958565b91507f637265616d0000000000000000000000000000000000000000000000000000006000830152600582019050919050565b6000613fd4601f83614947565b91507f416c7265616479206c696e6b656420746f204d41434920696e7374616e6365006000830152602082019050919050565b6000614014601583614947565b91507f496e76616c6964206465706f7369742070726f6f6600000000000000000000006000830152602082019050919050565b6101608201614059600083018361496e565b61406660008501826140c6565b506140746020830183614963565b61408160208501826136b5565b50505050565b60408201614098600083018361496e565b6140a560008501826140c6565b506140b3602083018361496e565b6140c060208501826140c6565b50505050565b6140cf81614a2f565b82525050565b6140de81614a2f565b82525050565b6140ed81614a2f565b82525050565b6140fc81614a39565b82525050565b600061410d82613f87565b9150819050919050565b600060208201905061412c60008301846135f1565b92915050565b600060208201905061414760008301846135c4565b92915050565b600060208201905061416260008301846135d3565b92915050565b600060608201905061417d60008301866135c4565b61418a60208301856135f1565b61419760408301846140d5565b949350505050565b60006040820190506141b460008301856135c4565b6141c1602083018461386d565b9392505050565b60006060820190506141dd60008301866135f1565b6141ea60208301856135c4565b6141f760408301846140d5565b949350505050565b600060408201905061421460008301856135f1565b614221602083018461386d565b9392505050565b600060208201905081810360008301526142428184613600565b905092915050565b600061014082019050614260600083018761371d565b61426d604083018661365e565b61427a60c083018561371d565b61428861010083018461371d565b95945050505050565b6000610100820190506142a76000830184613774565b92915050565b60006020820190506142c260008301846137cb565b92915050565b60006020820190506142dd60008301846137da565b92915050565b60006020820190506142f860008301846137e9565b92915050565b60006020820190506143136000830184613831565b92915050565b600060208201905061432e6000830184613840565b92915050565b6000602082019050614349600083018461384f565b92915050565b6000602082019050614364600083018461385e565b92915050565b6000602082019050818103600083015261438581848661388b565b90509392505050565b600060208201905081810360008301526143a881846138b8565b905092915050565b600060208201905081810360008301526143c9816138f1565b9050919050565b600060208201905081810360008301526143e981613957565b9050919050565b6000602082019050818103600083015261440981613997565b9050919050565b60006020820190508181036000830152614429816139fd565b9050919050565b6000602082019050818103600083015261444981613a63565b9050919050565b6000602082019050818103600083015261446981613aa3565b9050919050565b6000602082019050818103600083015261448981613b09565b9050919050565b600060208201905081810360008301526144a981613b49565b9050919050565b600060208201905081810360008301526144c981613b89565b9050919050565b600060208201905081810360008301526144e981613bef565b9050919050565b6000602082019050818103600083015261450981613c55565b9050919050565b6000602082019050818103600083015261452981613cbb565b9050919050565b6000602082019050818103600083015261454981613d21565b9050919050565b6000602082019050818103600083015261456981613d61565b9050919050565b6000602082019050818103600083015261458981613da1565b9050919050565b600060208201905081810360008301526145a981613de1565b9050919050565b600060208201905081810360008301526145c981613e21565b9050919050565b600060208201905081810360008301526145e981613e87565b9050919050565b6000602082019050818103600083015261460981613ec7565b9050919050565b6000602082019050818103600083015261462981613f07565b9050919050565b6000602082019050818103600083015261464981613f47565b9050919050565b6000602082019050818103600083015261466981613fc7565b9050919050565b6000602082019050818103600083015261468981614007565b9050919050565b60006101a0820190506146a66000830185614047565b6146b4610160830184614087565b9392505050565b60006080820190506146d06000830186614087565b81810360408301526146e281856137f8565b905081810360608301526146f681846137f8565b9050949350505050565b600060208201905061471560008301846140d5565b92915050565b600060608201905061473060008301866140e4565b61473d60208301856140e4565b61474a604083018461387c565b949350505050565b600060208201905061476760008301846140f3565b92915050565b600060408201905061478260008301856140f3565b61478f60208301846140d5565b9392505050565b6000604051905081810181811067ffffffffffffffff821117156147b957600080fd5b8060405250919050565b600067ffffffffffffffff8211156147da57600080fd5b602082029050919050565b600067ffffffffffffffff8211156147fc57600080fd5b602082029050919050565b600067ffffffffffffffff82111561481e57600080fd5b602082029050919050565b600067ffffffffffffffff82111561484057600080fd5b601f19601f8301169050602081019050919050565b6000819050602082019050919050565b6000819050919050565b6000819050919050565b6000819050919050565b600081519050919050565b600060029050919050565b600060029050919050565b600060089050919050565b600081519050919050565b600081519050919050565b6000602082019050919050565b6000602082019050919050565b6000602082019050919050565b6000602082019050919050565b600082825260208201905092915050565b600081905092915050565b600081905092915050565b600081905092915050565b600081905092915050565b600082825260208201905092915050565b600082825260208201905092915050565b600081905092915050565b600082905092915050565b600061497d6020840184613192565b905092915050565b600061499082614a0f565b9050919050565b60006149a282614a0f565b9050919050565b60008115159050919050565b6000819050919050565b60007fffffffff0000000000000000000000000000000000000000000000000000000082169050919050565b60006149f682614985565b9050919050565b6000614a0882614985565b9050919050565b600073ffffffffffffffffffffffffffffffffffffffff82169050919050565b6000819050919050565b600063ffffffff82169050919050565b6000614a5482614afd565b9050919050565b6000614a6682614a6d565b9050919050565b6000614a7882614a0f565b9050919050565b6000614a8a82614a91565b9050919050565b6000614a9c82614a0f565b9050919050565b6000614aae82614ab5565b9050919050565b6000614ac082614a0f565b9050919050565b6000614ad282614ad9565b9050919050565b6000614ae482614a0f565b9050919050565b6000614af682614a2f565b9050919050565b6000614b0882614b0f565b9050919050565b6000614b1a82614a0f565b9050919050565b82818337600083830152505050565b60005b83811015614b4e578082015181840152602081019050614b33565b83811115614b5d576000848401525b50505050565b6000601f19601f8301169050919050565b614b7d81614985565b8114614b8857600080fd5b50565b614b94816149a9565b8114614b9f57600080fd5b50565b614bab816149b5565b8114614bb657600080fd5b50565b614bc2816149eb565b8114614bcd57600080fd5b50565b614bd9816149fd565b8114614be457600080fd5b50565b614bf081614a2f565b8114614bfb57600080fd5b5056fea264697066735822122042fadeea48126a2c4f06563deeaf3c20d71dc890dc0e9a2e49cee7549d65452b64736f6c634300060c0033a26469706673582212209c164f1a7eb32e5f737ca095e4f13917fe8c3cb3ebeaa48248f11bceb0df1a2b64736f6c634300060c0033",
  "immutableReferences": {},
  "source": "// SPDX-License-Identifier: GPL-3.0\npragma solidity ^0.6.12;\npragma experimental ABIEncoderV2;\n\nimport \"./Cream.sol\";\nimport \"./MACIFactory.sol\";\nimport { SignUpTokenGatekeeper } from \"./gatekeepers/SignUpTokenGatekeeper.sol\";\nimport { ConstantInitialVoiceCreditProxy } from \"./initialVoiceCreditProxy/ConstantInitialVoiceCreditProxy.sol\";\nimport \"maci-contracts/sol/MACISharedObjs.sol\";\nimport \"maci-contracts/sol/gatekeepers/SignUpGatekeeper.sol\";\nimport \"maci-contracts/sol/initialVoiceCreditProxy/InitialVoiceCreditProxy.sol\";\n\ncontract CreamFactory is Ownable, MACISharedObjs {\n\tmapping(address => string) public electionDetails;\n\tevent CreamCreated(address indexed creamAddress, string ipfsHash);\n\n    MACIFactory public maciFactory;\n\t//\tIVerifier public creamVerifier;\n\n    constructor(\n        MACIFactory _maciFactory\n    ) public {\n\t\tmaciFactory = _maciFactory;\n    }\n\n    function setMaciParameters(\n        uint8 _stateTreeDepth,\n        uint8 _messageTreeDepth,\n        uint8 _voteOptionTreeDepth,\n        uint8 _tallyBatchSize,\n        uint8 _messageBatchSize,\n        SnarkVerifier _batchUstVerifier,\n        SnarkVerifier _qvtVerifier,\n        uint256 _signUpDuration,\n        uint256 _votingDuration\n   ) external onlyOwner {\n\t\tmaciFactory.setMaciParameters(\n            _stateTreeDepth,\n            _messageTreeDepth,\n            _voteOptionTreeDepth,\n            _tallyBatchSize,\n            _messageBatchSize,\n            _batchUstVerifier,\n            _qvtVerifier,\n            _signUpDuration,\n            _votingDuration\n        );\n\t}\n\n\tfunction createCream(\n\t\tIVerifier _creamVerifier,\n        VotingToken _votingToken,\n        SignUpToken _signUpToken,\n        uint256 _balance,\n        uint32 _merkleTreeHeight,\n        address[] memory _recipients,\n        string memory _ipfsHash,\n\t\tPubKey memory _coordinatorPubKey,\n\t\taddress _coordinator\n    ) external {\n\t\trequire(_coordinator != address(0), \"Coordinator cannot be zero address\");\n\t\trequire(maciFactory.owner() == address(this), \"MACI factory is not owned by CreamFactory contract\");\n\n\t\t// Deploy new SignUpTokenGatekeeper\n\t\tSignUpTokenGatekeeper sutg = new SignUpTokenGatekeeper (\n\t\t\t_signUpToken\n\t\t);\n\n\t\t// Deploy new import ConstantInitialVoiceCreditProxy\n\t\tConstantInitialVoiceCreditProxy civcp = new ConstantInitialVoiceCreditProxy (\n\t\t\t_balance\n\t\t);\n\n        // Deploy new Cream contract\n\t\tCream cream = new Cream(\n            _creamVerifier,\n            _votingToken,\n            _merkleTreeHeight,\n            _recipients,\n\t\t\t_coordinator\n        );\n\n\t\taddress creamAddress = address(cream);\n\n\t\t// Deploy new MACI contract\n\t\tMACI _maci = maciFactory.deployMaci(\n            SignUpGatekeeper(address(sutg)),\n            InitialVoiceCreditProxy(address(civcp)),\n            _coordinatorPubKey\n        );\n\n\t\t// Link Cream and MACI\n        cream.setMaci(_maci, _signUpToken);\n\n        // Set cream contract owner\n        cream.transferOwnership(msg.sender);\n\n\t\telectionDetails[creamAddress] = _ipfsHash;\n\t\temit CreamCreated(creamAddress, _ipfsHash);\n\t}\n}\n",
  "sourcePath": "/Users/kazuaki/fun/cream/packages/contracts/contracts/CreamFactory.sol",
  "compiler": {
    "name": "solc",
    "version": "0.6.12+commit.27d51765.Emscripten.clang"
  },
  "schemaVersion": "3.3.3",
  "updatedAt": "2021-06-16T06:06:07.731Z",
  "networkType": "ethereum",
  "devdoc": {
    "kind": "dev",
    "methods": {
      "owner()": {
        "details": "Returns the address of the current owner."
      },
      "renounceOwnership()": {
        "details": "Leaves the contract without owner. It will not be possible to call `onlyOwner` functions anymore. Can only be called by the current owner. NOTE: Renouncing ownership will leave the contract without an owner, thereby removing any functionality that is only available to the owner."
      },
      "transferOwnership(address)": {
        "details": "Transfers ownership of the contract to a new account (`newOwner`). Can only be called by the current owner."
      }
    },
    "version": 1
  },
  "userdoc": {
    "kind": "user",
    "methods": {},
    "version": 1
  }
}